{
  "address": "0xaa6884F03591AFa417a62a1427675288e4c1Ad18",
  "abi": [
    {
      "inputs": [
        {
          "internalType": "address",
          "name": "_token",
          "type": "address"
        },
        {
          "internalType": "uint256",
          "name": "_tokenId",
          "type": "uint256"
        },
        {
          "internalType": "uint256",
          "name": "_amount",
          "type": "uint256"
        }
      ],
      "stateMutability": "nonpayable",
      "type": "constructor"
    },
    {
      "inputs": [],
      "name": "BelowMinimumBid",
      "type": "error"
    },
    {
      "inputs": [],
      "name": "BidIsStillActive",
      "type": "error"
    },
    {
      "inputs": [],
      "name": "CanNotBidNow",
      "type": "error"
    },
    {
      "inputs": [],
      "name": "ContractNotAllowed",
      "type": "error"
    },
    {
      "inputs": [],
      "name": "LowerThanTheHighestBid",
      "type": "error"
    },
    {
      "inputs": [],
      "name": "NotTheSeller",
      "type": "error"
    },
    {
      "inputs": [],
      "name": "YouAreNotAllowedToClaim",
      "type": "error"
    },
    {
      "inputs": [],
      "name": "YouAreNotAllowedToWithdraw",
      "type": "error"
    },
    {
      "inputs": [],
      "name": "YouCanNotWithdraw",
      "type": "error"
    },
    {
      "inputs": [],
      "name": "ZeroBalance",
      "type": "error"
    },
    {
      "anonymous": false,
      "inputs": [
        {
          "indexed": true,
          "internalType": "address",
          "name": "bidWinner",
          "type": "address"
        }
      ],
      "name": "BidEnded",
      "type": "event"
    },
    {
      "anonymous": false,
      "inputs": [
        {
          "indexed": true,
          "internalType": "address",
          "name": "bidder",
          "type": "address"
        },
        {
          "indexed": true,
          "internalType": "uint256",
          "name": "bidPrice",
          "type": "uint256"
        }
      ],
      "name": "BidPlaced",
      "type": "event"
    },
    {
      "anonymous": false,
      "inputs": [
        {
          "indexed": true,
          "internalType": "uint256",
          "name": "startTime",
          "type": "uint256"
        }
      ],
      "name": "BidStarted",
      "type": "event"
    },
    {
      "inputs": [],
      "name": "claim",
      "outputs": [],
      "stateMutability": "nonpayable",
      "type": "function"
    },
    {
      "inputs": [
        {
          "internalType": "address",
          "name": "",
          "type": "address"
        },
        {
          "internalType": "address",
          "name": "",
          "type": "address"
        },
        {
          "internalType": "uint256",
          "name": "",
          "type": "uint256"
        },
        {
          "internalType": "uint256",
          "name": "",
          "type": "uint256"
        },
        {
          "internalType": "bytes",
          "name": "",
          "type": "bytes"
        }
      ],
      "name": "onERC1155Received",
      "outputs": [
        {
          "internalType": "bytes4",
          "name": "",
          "type": "bytes4"
        }
      ],
      "stateMutability": "nonpayable",
      "type": "function"
    },
    {
      "inputs": [],
      "name": "placeBid",
      "outputs": [],
      "stateMutability": "payable",
      "type": "function"
    },
    {
      "inputs": [],
      "name": "startBid",
      "outputs": [],
      "stateMutability": "nonpayable",
      "type": "function"
    },
    {
      "inputs": [],
      "name": "token",
      "outputs": [
        {
          "internalType": "contract IERC1155",
          "name": "",
          "type": "address"
        }
      ],
      "stateMutability": "view",
      "type": "function"
    },
    {
      "inputs": [],
      "name": "withdraw",
      "outputs": [],
      "stateMutability": "nonpayable",
      "type": "function"
    }
  ],
  "transactionHash": "0xdaaf0ff46476c1f0b60e3bbf6670bb3a469455bb9b94e8642a067250ec122e35",
  "args": [
    "0xDD52B5ea46F082917f5053C1adfA431CE4D8670a",
    1,
    1
  ],
  "numDeployments": 1,
  "solcInputHash": "6e0603c79f85789c389116feff0ca99a",
  "bytecode": "0x6101006040523480156200001257600080fd5b5060405162001aba38038062001aba83398181016040528101906200003891906200015e565b8273ffffffffffffffffffffffffffffffffffffffff1660808173ffffffffffffffffffffffffffffffffffffffff16815250503373ffffffffffffffffffffffffffffffffffffffff1660a08173ffffffffffffffffffffffffffffffffffffffff16815250508160c081815250508060e08181525050505050620001ba565b600080fd5b600073ffffffffffffffffffffffffffffffffffffffff82169050919050565b6000620000eb82620000be565b9050919050565b620000fd81620000de565b81146200010957600080fd5b50565b6000815190506200011d81620000f2565b92915050565b6000819050919050565b620001388162000123565b81146200014457600080fd5b50565b60008151905062000158816200012d565b92915050565b6000806000606084860312156200017a5762000179620000b9565b5b60006200018a868287016200010c565b93505060206200019d8682870162000147565b9250506040620001b08682870162000147565b9150509250925092565b60805160a05160c05160e0516118806200023a6000396000818161061e015281816107a1015261097b0152600081816105fd01528181610780015261095a0152600081816104fe015281816106960152818161075f01526108970152600081816105bf015281816107220152818161091c015261100e01526118806000f3fe6080604052600436106100555760003560e01c80633ccfd60b1461005a5780634e71d92d1461007157806377c5a4c614610088578063ecfc7ecc1461009f578063f23a6e61146100a9578063fc0c546a146100e6575b600080fd5b34801561006657600080fd5b5061006f610111565b005b34801561007d57600080fd5b5061008661039d565b005b34801561009457600080fd5b5061009d610890565b005b6100a7610bb9565b005b3480156100b557600080fd5b506100d060048036038101906100cb919061141e565b610ff7565b6040516100dd91906114f0565b60405180910390f35b3480156100f257600080fd5b506100fb61100c565b604051610108919061156a565b60405180910390f35b60008001601a9054906101000a900465ffffffffffff1665ffffffffffff16421015610169576040517f3eece7c900000000000000000000000000000000000000000000000000000000815260040160405180910390fd5b60008060000160009054906101000a900473ffffffffffffffffffffffffffffffffffffffff1690506000600260003373ffffffffffffffffffffffffffffffffffffffff1673ffffffffffffffffffffffffffffffffffffffff1681526020019081526020016000205490506000811415610211576040517f669567ea00000000000000000000000000000000000000000000000000000000815260040160405180910390fd5b8173ffffffffffffffffffffffffffffffffffffffff163373ffffffffffffffffffffffffffffffffffffffff161415610277576040517f5fd52fc300000000000000000000000000000000000000000000000000000000815260040160405180910390fd5b6000600260003373ffffffffffffffffffffffffffffffffffffffff1673ffffffffffffffffffffffffffffffffffffffff1681526020019081526020016000208190555060003373ffffffffffffffffffffffffffffffffffffffff16826040516102e2906115b6565b60006040518083038185875af1925050503d806000811461031f576040519150601f19603f3d011682016040523d82523d6000602084013e610324565b606091505b505090508061035f576040517f54a42f3900000000000000000000000000000000000000000000000000000000815260040160405180910390fd5b610398604051806060016040528060238152602001611828602391393373ffffffffffffffffffffffffffffffffffffffff1631611030565b505050565b60008001601a9054906101000a900465ffffffffffff1665ffffffffffff164210156103f5576040517f3eece7c900000000000000000000000000000000000000000000000000000000815260040160405180910390fd5b60008060000160009054906101000a900473ffffffffffffffffffffffffffffffffffffffff1690506000806001015490506000806000820160006101000a81549073ffffffffffffffffffffffffffffffffffffffff02191690556000820160146101000a81549065ffffffffffff021916905560008201601a6101000a81549065ffffffffffff021916905560018201600090555050600073ffffffffffffffffffffffffffffffffffffffff168273ffffffffffffffffffffffffffffffffffffffff16141580156104f557508173ffffffffffffffffffffffffffffffffffffffff163373ffffffffffffffffffffffffffffffffffffffff16145b156106945760007f000000000000000000000000000000000000000000000000000000000000000073ffffffffffffffffffffffffffffffffffffffff1682604051610540906115b6565b60006040518083038185875af1925050503d806000811461057d576040519150601f19603f3d011682016040523d82523d6000602084013e610582565b606091505b50509050806105bd576040517f54a42f3900000000000000000000000000000000000000000000000000000000815260040160405180910390fd5b7f000000000000000000000000000000000000000000000000000000000000000073ffffffffffffffffffffffffffffffffffffffff1663f242432a30857f00000000000000000000000000000000000000000000000000000000000000007f00000000000000000000000000000000000000000000000000000000000000006040518563ffffffff1660e01b815260040161065c949392919061161d565b600060405180830381600087803b15801561067657600080fd5b505af115801561068a573d6000803e3d6000fd5b5050505050610849565b7f000000000000000000000000000000000000000000000000000000000000000073ffffffffffffffffffffffffffffffffffffffff163373ffffffffffffffffffffffffffffffffffffffff1614801561071b5750600073ffffffffffffffffffffffffffffffffffffffff168273ffffffffffffffffffffffffffffffffffffffff16145b15610816577f000000000000000000000000000000000000000000000000000000000000000073ffffffffffffffffffffffffffffffffffffffff1663f242432a307f00000000000000000000000000000000000000000000000000000000000000007f00000000000000000000000000000000000000000000000000000000000000007f00000000000000000000000000000000000000000000000000000000000000006040518563ffffffff1660e01b81526004016107df949392919061161d565b600060405180830381600087803b1580156107f957600080fd5b505af115801561080d573d6000803e3d6000fd5b50505050610848565b6040517f6fd21a0f00000000000000000000000000000000000000000000000000000000815260040160405180910390fd5b5b8173ffffffffffffffffffffffffffffffffffffffff167f1f456938a0c04c7f6807b249a094415c3d656660c3b6512b09a4432a338d844d60405160405180910390a25050565b60004290507f000000000000000000000000000000000000000000000000000000000000000073ffffffffffffffffffffffffffffffffffffffff163373ffffffffffffffffffffffffffffffffffffffff161461091a576040517f4410fe9200000000000000000000000000000000000000000000000000000000815260040160405180910390fd5b7f000000000000000000000000000000000000000000000000000000000000000073ffffffffffffffffffffffffffffffffffffffff1663f242432a33307f00000000000000000000000000000000000000000000000000000000000000007f00000000000000000000000000000000000000000000000000000000000000006040518563ffffffff1660e01b81526004016109b9949392919061161d565b600060405180830381600087803b1580156109d357600080fd5b505af11580156109e7573d6000803e3d6000fd5b505050506040518060800160405280600073ffffffffffffffffffffffffffffffffffffffff1681526020014265ffffffffffff1681526020016201518083610a3091906116a4565b65ffffffffffff16815260200160008152506000808201518160000160006101000a81548173ffffffffffffffffffffffffffffffffffffffff021916908373ffffffffffffffffffffffffffffffffffffffff16021790555060208201518160000160146101000a81548165ffffffffffff021916908365ffffffffffff160217905550604082015181600001601a6101000a81548165ffffffffffff021916908365ffffffffffff16021790555060608201518160010155905050610b2c6040518060400160405280601581526020017f546865207374617274206269642074696d65206973000000000000000000000081525042611030565b610b896040518060400160405280601381526020017f546865206269642077696c6c20656e642061740000000000000000000000000081525060008001601a9054906101000a900465ffffffffffff1665ffffffffffff16611030565b807ffaf9a84f5f5e38fc976ae1c86a2872f8e93e32cd3a520c13d3d7a2b4b2fe3d9160405160405180910390a250565b6000800160149054906101000a900465ffffffffffff1665ffffffffffff16421080610c02575060008001601a9054906101000a900465ffffffffffff1665ffffffffffff1642115b15610c39576040517f1ac8449f00000000000000000000000000000000000000000000000000000000815260040160405180910390fd5b66b1a2bc2ec50000341015610c7a576040517fbb5d1a9500000000000000000000000000000000000000000000000000000000815260040160405180910390fd5b3273ffffffffffffffffffffffffffffffffffffffff163373ffffffffffffffffffffffffffffffffffffffff1614610cdf576040517f8cb8716800000000000000000000000000000000000000000000000000000000815260040160405180910390fd5b600060010154600260003373ffffffffffffffffffffffffffffffffffffffff1673ffffffffffffffffffffffffffffffffffffffff1681526020019081526020016000205434610d3091906116a4565b11610d67576040517fbbf51ae900000000000000000000000000000000000000000000000000000000815260040160405180910390fd5b6000600260003373ffffffffffffffffffffffffffffffffffffffff1673ffffffffffffffffffffffffffffffffffffffff1681526020019081526020016000205490508034610db791906116a4565b600060010181905550336000800160006101000a81548173ffffffffffffffffffffffffffffffffffffffff021916908373ffffffffffffffffffffffffffffffffffffffff1602179055503481610e0f91906116a4565b905080600260003373ffffffffffffffffffffffffffffffffffffffff1673ffffffffffffffffffffffffffffffffffffffff16815260200190815260200160002081905550610eb86040518060400160405280601581526020017f54686520686967686573742062696464657220697300000000000000000000008152506000800160009054906101000a900473ffffffffffffffffffffffffffffffffffffffff166110cc565b610f6c6040518060400160405280600881526020017f4120626964206f66000000000000000000000000000000000000000000000000815250600260003373ffffffffffffffffffffffffffffffffffffffff1673ffffffffffffffffffffffffffffffffffffffff168152602001908152602001600020546040518060400160405280600a81526020017f77617320706c6163656400000000000000000000000000000000000000000000815250611168565b610fab6040518060400160405280601e81526020017f5468652062616c616e6365206f662074686520636f6e7472616374206973000081525047611030565b6000600101543373ffffffffffffffffffffffffffffffffffffffff167f3fabff0a9c3ecd6814702e247fa9733e5d0aa69e3a38590f92cb18f623a2254d60405160405180910390a350565b600063f23a6e6160e01b905095945050505050565b7f000000000000000000000000000000000000000000000000000000000000000081565b6110c88282604051602401611046929190611782565b6040516020818303038152906040527f9710a9d0000000000000000000000000000000000000000000000000000000007bffffffffffffffffffffffffffffffffffffffffffffffffffffffff19166020820180517bffffffffffffffffffffffffffffffffffffffffffffffffffffffff8381831617835250505050611207565b5050565b61116482826040516024016110e29291906117b2565b6040516020818303038152906040527f319af333000000000000000000000000000000000000000000000000000000007bffffffffffffffffffffffffffffffffffffffffffffffffffffffff19166020820180517bffffffffffffffffffffffffffffffffffffffffffffffffffffffff8381831617835250505050611207565b5050565b611202838383604051602401611180939291906117e2565b6040516020818303038152906040527fa3f5c739000000000000000000000000000000000000000000000000000000007bffffffffffffffffffffffffffffffffffffffffffffffffffffffff19166020820180517bffffffffffffffffffffffffffffffffffffffffffffffffffffffff8381831617835250505050611207565b505050565b60008151905060006a636f6e736f6c652e6c6f679050602083016000808483855afa5050505050565b6000604051905090565b600080fd5b600080fd5b600073ffffffffffffffffffffffffffffffffffffffff82169050919050565b600061126f82611244565b9050919050565b61127f81611264565b811461128a57600080fd5b50565b60008135905061129c81611276565b92915050565b6000819050919050565b6112b5816112a2565b81146112c057600080fd5b50565b6000813590506112d2816112ac565b92915050565b600080fd5b600080fd5b6000601f19601f8301169050919050565b7f4e487b7100000000000000000000000000000000000000000000000000000000600052604160045260246000fd5b61132b826112e2565b810181811067ffffffffffffffff8211171561134a576113496112f3565b5b80604052505050565b600061135d611230565b90506113698282611322565b919050565b600067ffffffffffffffff821115611389576113886112f3565b5b611392826112e2565b9050602081019050919050565b82818337600083830152505050565b60006113c16113bc8461136e565b611353565b9050828152602081018484840111156113dd576113dc6112dd565b5b6113e884828561139f565b509392505050565b600082601f830112611405576114046112d8565b5b81356114158482602086016113ae565b91505092915050565b600080600080600060a0868803121561143a5761143961123a565b5b60006114488882890161128d565b95505060206114598882890161128d565b945050604061146a888289016112c3565b935050606061147b888289016112c3565b925050608086013567ffffffffffffffff81111561149c5761149b61123f565b5b6114a8888289016113f0565b9150509295509295909350565b60007fffffffff0000000000000000000000000000000000000000000000000000000082169050919050565b6114ea816114b5565b82525050565b600060208201905061150560008301846114e1565b92915050565b6000819050919050565b600061153061152b61152684611244565b61150b565b611244565b9050919050565b600061154282611515565b9050919050565b600061155482611537565b9050919050565b61156481611549565b82525050565b600060208201905061157f600083018461155b565b92915050565b600081905092915050565b50565b60006115a0600083611585565b91506115ab82611590565b600082019050919050565b60006115c182611593565b9150819050919050565b6115d481611264565b82525050565b6115e3816112a2565b82525050565b600082825260208201905092915050565b60006116076000836115e9565b915061161282611590565b600082019050919050565b600060a08201905061163260008301876115cb565b61163f60208301866115cb565b61164c60408301856115da565b61165960608301846115da565b818103608083015261166a816115fa565b905095945050505050565b7f4e487b7100000000000000000000000000000000000000000000000000000000600052601160045260246000fd5b60006116af826112a2565b91506116ba836112a2565b9250827fffffffffffffffffffffffffffffffffffffffffffffffffffffffffffffffff038211156116ef576116ee611675565b5b828201905092915050565b600081519050919050565b600082825260208201905092915050565b60005b83811015611734578082015181840152602081019050611719565b83811115611743576000848401525b50505050565b6000611754826116fa565b61175e8185611705565b935061176e818560208601611716565b611777816112e2565b840191505092915050565b6000604082019050818103600083015261179c8185611749565b90506117ab60208301846115da565b9392505050565b600060408201905081810360008301526117cc8185611749565b90506117db60208301846115cb565b9392505050565b600060608201905081810360008301526117fc8186611749565b905061180b60208301856115da565b818103604083015261181d8184611749565b905094935050505056fe5468652065746865722062616c616e6365206f66207468652063616c6c657220697320a264697066735822122064fda76f81476b216af7d05a3291be2c05872082fe6d10efe91e006ba051226964736f6c63430008090033",
  "devdoc": {
    "kind": "dev",
    "methods": {},
    "version": 1
  },
  "userdoc": {
    "kind": "user",
    "methods": {},
    "version": 1
  },
  "storageLayout": {
    "storage": [
      {
        "astId": 77,
        "contract": "contracts/EnglishAuction.sol:EnglishAuction",
        "label": "bid",
        "offset": 0,
        "slot": "0",
        "type": "t_struct(Bid)74_storage"
      },
      {
        "astId": 81,
        "contract": "contracts/EnglishAuction.sol:EnglishAuction",
        "label": "bids",
        "offset": 0,
        "slot": "2",
        "type": "t_mapping(t_address,t_uint256)"
      }
    ],
    "types": {
      "t_address": {
        "encoding": "inplace",
        "label": "address",
        "numberOfBytes": "20"
      },
      "t_mapping(t_address,t_uint256)": {
        "encoding": "mapping",
        "key": "t_address",
        "label": "mapping(address => uint256)",
        "numberOfBytes": "32",
        "value": "t_uint256"
      },
      "t_struct(Bid)74_storage": {
        "encoding": "inplace",
        "label": "struct EnglishAuction.Bid",
        "members": [
          {
            "astId": 67,
            "contract": "contracts/EnglishAuction.sol:EnglishAuction",
            "label": "highestBidder",
            "offset": 0,
            "slot": "0",
            "type": "t_address"
          },
          {
            "astId": 69,
            "contract": "contracts/EnglishAuction.sol:EnglishAuction",
            "label": "startTime",
            "offset": 20,
            "slot": "0",
            "type": "t_uint48"
          },
          {
            "astId": 71,
            "contract": "contracts/EnglishAuction.sol:EnglishAuction",
            "label": "endTime",
            "offset": 26,
            "slot": "0",
            "type": "t_uint48"
          },
          {
            "astId": 73,
            "contract": "contracts/EnglishAuction.sol:EnglishAuction",
            "label": "highestBid",
            "offset": 0,
            "slot": "1",
            "type": "t_uint256"
          }
        ],
        "numberOfBytes": "64"
      },
      "t_uint256": {
        "encoding": "inplace",
        "label": "uint256",
        "numberOfBytes": "32"
      },
      "t_uint48": {
        "encoding": "inplace",
        "label": "uint48",
        "numberOfBytes": "6"
      }
    }
  }
}